{
  "contractName": "MusiciansManager",
  "abi": [
    {
      "anonymous": false,
      "inputs": [
        {
          "indexed": false,
          "internalType": "string",
          "name": "_artistName",
          "type": "string"
        }
      ],
      "name": "getTheMusician",
      "type": "event"
    },
    {
      "anonymous": false,
      "inputs": [
        {
          "components": [
            {
              "internalType": "string",
              "name": "title",
              "type": "string"
            },
            {
              "internalType": "uint256",
              "name": "duration",
              "type": "uint256"
            }
          ],
          "indexed": false,
          "internalType": "struct MusiciansManager.Tracks[]",
          "name": "_tracks",
          "type": "tuple[]"
        }
      ],
      "name": "getTheTracks",
      "type": "event"
    },
    {
      "anonymous": false,
      "inputs": [
        {
          "indexed": false,
          "internalType": "string",
          "name": "_artistName",
          "type": "string"
        }
      ],
      "name": "musicianCreated",
      "type": "event"
    },
    {
      "anonymous": false,
      "inputs": [
        {
          "indexed": false,
          "internalType": "string",
          "name": "_artistName",
          "type": "string"
        },
        {
          "indexed": false,
          "internalType": "string",
          "name": "_title",
          "type": "string"
        }
      ],
      "name": "trackAdded",
      "type": "event"
    },
    {
      "inputs": [],
      "name": "getOwner",
      "outputs": [
        {
          "internalType": "address",
          "name": "",
          "type": "address"
        }
      ],
      "stateMutability": "view",
      "type": "function"
    },
    {
      "inputs": [
        {
          "internalType": "address",
          "name": "_address",
          "type": "address"
        },
        {
          "internalType": "string",
          "name": "_artistName",
          "type": "string"
        }
      ],
      "name": "addMusician",
      "outputs": [],
      "stateMutability": "nonpayable",
      "type": "function"
    },
    {
      "inputs": [
        {
          "internalType": "address",
          "name": "_address",
          "type": "address"
        },
        {
          "internalType": "string",
          "name": "_title",
          "type": "string"
        },
        {
          "internalType": "uint256",
          "name": "_duration",
          "type": "uint256"
        }
      ],
      "name": "addTrack",
      "outputs": [],
      "stateMutability": "nonpayable",
      "type": "function"
    },
    {
      "inputs": [
        {
          "internalType": "address",
          "name": "_address",
          "type": "address"
        }
      ],
      "name": "getTracks",
      "outputs": [],
      "stateMutability": "nonpayable",
      "type": "function"
    },
    {
      "inputs": [
        {
          "internalType": "address",
          "name": "_address",
          "type": "address"
        }
      ],
      "name": "getMusician",
      "outputs": [],
      "stateMutability": "nonpayable",
      "type": "function"
    }
  ],
  "bytecode": "0x608060405234801561001057600080fd5b50336000806101000a81548173ffffffffffffffffffffffffffffffffffffffff021916908373ffffffffffffffffffffffffffffffffffffffff160217905550610f55806100606000396000f3fe608060405234801561001057600080fd5b50600436106100575760003560e01c80636bcc77821461005c5780637b061e3814610078578063893d20e814610094578063b14efb5f146100b2578063ea55d5a8146100ce575b600080fd5b6100766004803603810190610071919061071c565b6100ea565b005b610092600480360381019061008d919061088f565b610165565b005b61009c610316565b6040516100a991906108fa565b60405180910390f35b6100cc60048036038101906100c7919061094b565b61033f565b005b6100e860048036038101906100e3919061071c565b61058c565b005b7f1c56b8acd78e4cf62b13bf2065d86aaa91f6e5d4ca142798d8e8d03edc5a4a00600160008373ffffffffffffffffffffffffffffffffffffffff1673ffffffffffffffffffffffffffffffffffffffff16815260200190815260200160002060010160405161015a9190610c10565b60405180910390a150565b60008054906101000a900473ffffffffffffffffffffffffffffffffffffffff1673ffffffffffffffffffffffffffffffffffffffff163373ffffffffffffffffffffffffffffffffffffffff16146101f3576040517f08c379a00000000000000000000000000000000000000000000000000000000081526004016101ea90610c8f565b60405180910390fd5b6000600160008473ffffffffffffffffffffffffffffffffffffffff1673ffffffffffffffffffffffffffffffffffffffff168152602001908152602001600020600001805461024290610a1a565b905014610284576040517f08c379a000000000000000000000000000000000000000000000000000000000815260040161027b90610d21565b60405180910390fd5b80600160008473ffffffffffffffffffffffffffffffffffffffff1673ffffffffffffffffffffffffffffffffffffffff16815260200190815260200160002060000190805190602001906102da929190610607565b507f08e51fe4815297917128fa893659743d8634168b341c5e8e6d4c0c5a81394bcc8160405161030a9190610db8565b60405180910390a15050565b60008060009054906101000a900473ffffffffffffffffffffffffffffffffffffffff16905090565b60008054906101000a900473ffffffffffffffffffffffffffffffffffffffff1673ffffffffffffffffffffffffffffffffffffffff163373ffffffffffffffffffffffffffffffffffffffff16146103cd576040517f08c379a00000000000000000000000000000000000000000000000000000000081526004016103c490610c8f565b60405180910390fd5b6000600160008573ffffffffffffffffffffffffffffffffffffffff1673ffffffffffffffffffffffffffffffffffffffff168152602001908152602001600020600001805461041c90610a1a565b90501161045e576040517f08c379a000000000000000000000000000000000000000000000000000000000815260040161045590610e26565b60405180910390fd5b60006040518060400160405280848152602001838152509050600160008573ffffffffffffffffffffffffffffffffffffffff1673ffffffffffffffffffffffffffffffffffffffff16815260200190815260200160002060010181908060018154018082558091505060019003906000526020600020906002020160009091909190915060008201518160000190805190602001906104ff929190610607565b506020820151816001015550507f5115c96efdf6d18732cb7d6340f8d69c0d0f4f2c14e9b01b435a1190ce443c3d600160008673ffffffffffffffffffffffffffffffffffffffff1673ffffffffffffffffffffffffffffffffffffffff1681526020019081526020016000206000018460405161057e929190610ec6565b60405180910390a150505050565b7f10686bcbf7649e4e090f005b04ccfa907c7a730ac38d3d74eb6fb53d3f1cf6fb600160008373ffffffffffffffffffffffffffffffffffffffff1673ffffffffffffffffffffffffffffffffffffffff1681526020019081526020016000206000016040516105fc9190610efd565b60405180910390a150565b82805461061390610a1a565b90600052602060002090601f016020900481019282610635576000855561067c565b82601f1061064e57805160ff191683800117855561067c565b8280016001018555821561067c579182015b8281111561067b578251825591602001919060010190610660565b5b509050610689919061068d565b5090565b5b808211156106a657600081600090555060010161068e565b5090565b6000604051905090565b600080fd5b600080fd5b600073ffffffffffffffffffffffffffffffffffffffff82169050919050565b60006106e9826106be565b9050919050565b6106f9816106de565b811461070457600080fd5b50565b600081359050610716816106f0565b92915050565b600060208284031215610732576107316106b4565b5b600061074084828501610707565b91505092915050565b600080fd5b600080fd5b6000601f19601f8301169050919050565b7f4e487b7100000000000000000000000000000000000000000000000000000000600052604160045260246000fd5b61079c82610753565b810181811067ffffffffffffffff821117156107bb576107ba610764565b5b80604052505050565b60006107ce6106aa565b90506107da8282610793565b919050565b600067ffffffffffffffff8211156107fa576107f9610764565b5b61080382610753565b9050602081019050919050565b82818337600083830152505050565b600061083261082d846107df565b6107c4565b90508281526020810184848401111561084e5761084d61074e565b5b610859848285610810565b509392505050565b600082601f83011261087657610875610749565b5b813561088684826020860161081f565b91505092915050565b600080604083850312156108a6576108a56106b4565b5b60006108b485828601610707565b925050602083013567ffffffffffffffff8111156108d5576108d46106b9565b5b6108e185828601610861565b9150509250929050565b6108f4816106de565b82525050565b600060208201905061090f60008301846108eb565b92915050565b6000819050919050565b61092881610915565b811461093357600080fd5b50565b6000813590506109458161091f565b92915050565b600080600060608486031215610964576109636106b4565b5b600061097286828701610707565b935050602084013567ffffffffffffffff811115610993576109926106b9565b5b61099f86828701610861565b92505060406109b086828701610936565b9150509250925092565b600081549050919050565b600082825260208201905092915050565b60008190508160005260206000209050919050565b7f4e487b7100000000000000000000000000000000000000000000000000000000600052602260045260246000fd5b60006002820490506001821680610a3257607f821691505b60208210811415610a4657610a456109eb565b5b50919050565b600082825260208201905092915050565b60008190508160005260206000209050919050565b60008154610a7f81610a1a565b610a898186610a4c565b94506001821660008114610aa45760018114610ab657610ae9565b60ff1983168652602086019350610ae9565b610abf85610a5d565b60005b83811015610ae157815481890152600182019150602081019050610ac2565b808801955050505b50505092915050565b60008160001c9050919050565b6000819050919050565b6000610b1c610b1783610af2565b610aff565b9050919050565b610b2c81610915565b82525050565b60006040830160008084018583036000870152610b4f8382610a72565b92505060018401549050610b6281610b09565b610b6f6020870182610b23565b50819250505092915050565b6000610b878383610b32565b905092915050565b6000600282019050919050565b6000610ba7826109ba565b610bb181856109c5565b935083602082028501610bc3856109d6565b8060005b85811015610bfe57848403895281610bdf8582610b7b565b9450610bea83610b8f565b925060208a01995050600181019050610bc7565b50829750879550505050505092915050565b60006020820190508181036000830152610c2a8184610b9c565b905092915050565b600082825260208201905092915050565b7f4e6f7420746865206f776e657200000000000000000000000000000000000000600082015250565b6000610c79600d83610c32565b9150610c8482610c43565b602082019050919050565b60006020820190508181036000830152610ca881610c6c565b9050919050565b7f54686973206d7573696369616e2068617320616c7265616479206265656e206360008201527f7265617465640000000000000000000000000000000000000000000000000000602082015250565b6000610d0b602683610c32565b9150610d1682610caf565b604082019050919050565b60006020820190508181036000830152610d3a81610cfe565b9050919050565b600081519050919050565b60005b83811015610d6a578082015181840152602081019050610d4f565b83811115610d79576000848401525b50505050565b6000610d8a82610d41565b610d948185610c32565b9350610da4818560208601610d4c565b610dad81610753565b840191505092915050565b60006020820190508181036000830152610dd28184610d7f565b905092915050565b7f54686973206d7573696369616e7320646f65736e74206e6f7420657869737400600082015250565b6000610e10601f83610c32565b9150610e1b82610dda565b602082019050919050565b60006020820190508181036000830152610e3f81610e03565b9050919050565b60008154610e5381610a1a565b610e5d8186610c32565b94506001821660008114610e785760018114610e8a57610ebd565b60ff1983168652602086019350610ebd565b610e9385610a5d565b60005b83811015610eb557815481890152600182019150602081019050610e96565b808801955050505b50505092915050565b60006040820190508181036000830152610ee08185610e46565b90508181036020830152610ef48184610d7f565b90509392505050565b60006020820190508181036000830152610f178184610e46565b90509291505056fea26469706673582212209984420776420f2631e74c2e4ac8edfac4d2dd068e94b204412a579cb97a9c2e64736f6c63430008090033",
  "immutableReferences": {},
  "source": "// SPDX-License-Identifier: MIT\npragma solidity ^0.8.9;\n\nimport './Owner.sol';\n\ncontract MusiciansManager is Owner {\n\n  event musicianCreated(string _artistName);\n  event trackAdded(string _artistName, string _title);\n  event getTheTracks(Tracks[] _tracks);\n  event getTheMusician(string _artistName);\n\n  struct Tracks {\n    string title;\n    uint duration;\n  }\n\n  struct Musician {\n    string artistName;\n    Tracks[] tracks;\n  }\n\n  mapping(address => Musician) Musicians;\n\n  function addMusician(address _address, string memory _artistName) external isOwner {\n    require(bytes(Musicians[_address].artistName).length == 0, \"This musician has already been created\");\n    Musicians[_address].artistName = _artistName;\n    emit musicianCreated(_artistName);\n  }\n\n  function addTrack(address _address, string memory _title, uint _duration) external isOwner {\n    require(bytes(Musicians[_address].artistName).length > 0, \"This musicians doesnt not exist\");\n    Tracks memory thisTrack = Tracks(_title,_duration);\n    Musicians[_address].tracks.push(thisTrack);\n    emit trackAdded(Musicians[_address].artistName, _title);\n  }\n\n  function getTracks(address _address) external {\n    emit getTheTracks(Musicians[_address].tracks);\n  }\n\n  function getMusician(address _address) external {\n    emit getTheMusician(Musicians[_address].artistName);\n  }\n}\n",
  "sourcePath": "/home/mvst/project/tuto-solidity/contracts/MusiciansManager.sol",
  "compiler": {
    "name": "solc",
    "version": "0.8.9+commit.e5eed63a.Emscripten.clang"
  },
  "schemaVersion": "3.4.13",
  "updatedAt": "2023-03-10T17:58:34.163Z",
  "devdoc": {
    "kind": "dev",
    "methods": {},
    "version": 1
  },
  "userdoc": {
    "kind": "user",
    "methods": {},
    "version": 1
  }
}